:100000000C942A000C943F000C943F000C943F0089
:100010000C943F000C943F000C943F000C943F0064
:100020000C943F000C943F000C943F000C943F0054
:100030000C943F000C943F000C943F000C943F0044
:100040000C943F000C943F000C943F000C943F0034
:100050000C943F0011241FBECFE5D8E0DEBFCDBF1A
:1000600010E0A0E6B0E0E2E0F3E002C005900D92FF
:10007000A636B107D9F70E9419010C947F010C94A0
:10008000000021E030E0A90102C0440F551F8A950D
:10009000E2F7CA019BB3613019F4892B8BBB089539
:1000A00080958923FBCFCF93C82FD99A8FE99FE002
:1000B0000197F1F700C00000DA9A8FE99FE00197FD
:1000C000F1F700C00000C4FB662760F983E00E94DE
:1000D0004100C5FB662760F984E00E944100C6FB31
:1000E000662760F985E00E9441006C2F661F662735
:1000F000661F86E00E9441008FE99FE00197F1F7BB
:1001000000C00000DA988FE99FE00197F1F700C086
:100110000000DA9A8FE99FE00197F1F700C0000034
:100120006C2F617083E00E944100C1FB662760F97B
:1001300084E00E944100C2FB662760F985E00E94CE
:100140004100C3FB662760F986E00E9441008FE909
:100150009FE00197F1F700C00000DA988FE99FE077
:100160000197F1F700C00000CF910895CF93C82FF9
:10017000D9988FE99FE00197F1F700C00000DA9A63
:100180008FE99FE00197F1F700C00000C4FB6627EC
:1001900060F983E00E944100C5FB662760F984E0B6
:1001A0000E944100C6FB662760F985E00E9441007D
:1001B0006C2F661F6627661F86E00E9441008FE94C
:1001C0009FE00197F1F700C00000DA988FE99FE007
:1001D0000197F1F700C00000DA9A8FE99FE00197DC
:1001E000F1F700C000006C2F617083E00E944100B5
:1001F000C1FB662760F984E00E944100C2FB6627CC
:1002000060F985E00E944100C3FB662760F986E043
:100210000E9441008FE99FE00197F1F700C00000C4
:10022000DA988FE99FE00197F1F700C00000CF91C5
:100230000895D19AD29A2FEF89EF90E02150804013
:100240009040E1F700C00000D39AD49AD59AD69A8C
:100250002FEF89EF90E0215080409040E1F700C0FF
:10026000000083E30E94B60082E30E94B60088E2A9
:100270000E94B6008CE00E94B60081E00E94B600A9
:10028000C0E08C2F80680E94B600D0E0ED2FF0E037
:10029000E05AFF4F808181112AC02FEF83ED90E358
:1002A000215080409040E1F700C0000081E00E94B2
:1002B000B600CF5FC53029F78C2F80680E94B6004A
:1002C000D0E0ED2FF0E0E05AFF4F8081811113C0A4
:1002D0002FEF83ED90E3215080409040E1F700C084
:1002E000000081E00E94B600C15031F7C9CF0E94E2
:1002F0005300DF5FCBCF0E945300DF5FE2CFF89463
:02030000FFCF2D
:0603020048656C6C6F0001
:00000001FF
