:100000000C942A000C943F000C943F000C943F0089
:100010000C943F000C943F000C943F000C943F0064
:100020000C943F000C943F000C943F000C943F0054
:100030000C943F000C943F000C943F000C943F0044
:100040000C943F000C943F000C943F000C943F0034
:100050000C943F0011241FBECFE5D8E0DEBFCDBF1A
:1000600010E0A0E6B0E0ECEAF1E002C005900D92ED
:10007000A437B107D9F70E9441000C94D4000C9426
:100080000000CF93DF93CDB7DEB764970FB6F89437
:10009000DEBF0FBECDBF84E1E0E6F0E0DE011196E9
:1000A00001900D928A95E1F78EEF8ABB80EC84BBBC
:1000B00081B381BB00E010E0829B0FC003361105C5
:1000C00019F00F5F1F4F02C000E010E08FE39CE9C2
:1000D0000197F1F700C000001BC0839B0FC0011502
:1000E000110519F00150110902C003E610E0EFE319
:1000F000FCE93197F1F700C000000AC0849B08C0FA
:100100008FE39CE90197F1F700C0000000E010E0E8
:100110009801ADECBCEC0E94C500AC01569547952A
:100120005695479556954795CA01880F991F440FD4
:10013000551F440F551F440F551F480F591FF801F5
:10014000E41BF50B20E825BBEE0FFF1F21E030E09C
:100150002C0F3D1FE20FF31F20812BBBEFE3FCE9C7
:100160003197F1F700C0000020E425BBE1E0F0E0AA
:10017000EC0FFD1FE80FF91F80818BBB8FE39CE91B
:100180000197F1F700C0000097CFA29FB001B39F85
:10019000C001A39F700D811D1124911DB29F700D90
:0C01A000811D1124911D0895F894FFCFDB
:1001AC007E000C00B6009E00CC00DA00FA000E00B7
:0401BC00FE00DE0063
:00000001FF
