:100000000C942A000C9434000C9434000C943400AA
:100010000C9434000C9434000C9434000C94340090
:100020000C9434000C9434000C9434000C94340080
:100030000C9434000C9434000C9434000C94340070
:100040000C9434000C9434000C9434000C94340060
:100050000C94340011241FBECFE5D8E0DEBFCDBF25
:100060000E94AB000C943F010C94000021E030E0B2
:10007000A90102C0440F551F8A95E2F7CA019BB33C
:10008000613019F4892B8BBB089580958923FBCFB0
:10009000CF93C82FD9988FE99FE00197F1F700C05F
:1000A0000000DA9A8FE99FE00197F1F700C00000A5
:1000B000C4FB662760F983E00E943600C5FB662713
:1000C00060F984E00E943600C6FB662760F985E08F
:1000D0000E9436006C2F661F6627661F86E00E940E
:1000E00036008FE99FE00197F1F700C00000DA9831
:1000F0008FE99FE00197F1F700C00000DA9A8FE9DD
:100100009FE00197F1F700C000006C2F617083E061
:100110000E943600C1FB662760F984E00E94360029
:10012000C2FB662760F985E00E943600C3FB6627A4
:1001300060F986E00E9436008FE99FE00197F1F7B1
:1001400000C00000DA988FE99FE00197F1F700C046
:100150000000CF91089510BC87E689B988E18AB97B
:1001600086E880BDD19AD29A2FEF89EF90E0215096
:1001700080409040E1F700C00000D39AD49AD59A0D
:10018000D69A2FEF89EF90E0215080409040E1F720
:1001900000C0000083E30E94480082E30E94480000
:1001A00088E20E9448008CE00E94480081E00E94A2
:1001B00048005F9BFECFCCB180E80E944800D99AEE
:1001C0008FE99FE00197F1F700C00000DA9A8FE90C
:1001D0009FE00197F1F700C00000C4FB662760F9BB
:1001E00083E00E943600C5FB662760F984E00E9428
:1001F0003600C6FB662760F985E00E9436006C2F4A
:10020000661F6627661F86E00E9436008FE99FE022
:100210000197F1F700C00000DA988FE99FE001979D
:10022000F1F700C00000DA9A8FE99FE00197F1F73B
:1002300000C000006C2F617083E00E943600C1FB9B
:10024000662760F984E00E943600C2FB662760F9E9
:1002500085E00E943600C3FB662760F986E00E94B5
:1002600036008FE99FE00197F1F700C00000DA98AF
:100270008FE99FE00197F1F700C000009ACFF89452
:02028000FFCFAE
:00000001FF
