:100000000C942A000C9441000C943F000C943F0087
:100010000C943F000C943F000C943F000C943F0064
:100020000C943F000C943F000C943F000C943F0054
:100030000C943F000C943F000C943F000C943F0044
:100040000C943F000C943F000C943F000C943F0034
:100050000C943F0011241FBECFE5D8E0DEBFCDBF1A
:1000600010E0A0E6B0E0E2EEF0E002C005900D92F4
:10007000A236B107D9F70E945E000C946F000C9471
:1000800000001F920F920FB60F9211248F93809150
:1000900060008F5F80936000809160008A3719F460
:1000A00081E480936000809160005D9BFECF8CB9FD
:1000B0008F910F900FBE0F901F90189510BC87E680
:1000C00089B988E18AB986E880BD8A98929A8BB707
:1000D00080648BBF85B7836085BF7894FFCFF89429
:0200E000FFCF50
:0200E2004100DB
:00000001FF
