:100000000C942A000C9450010C9447000C94470067
:100010000C9447000C9447000C9447000C94470044
:100020000C9447000C9447000C9447000C94470034
:100030000C9447000C9447000C9447000C94470024
:100040000C9447000C9447000C9447000C94470014
:100050000C94470011241FBECFE5D8E0DEBFCDBF12
:1000600010E0A0E6B0E0E4E2FAE002C005900D92F4
:10007000AA36B107D9F720E0AAE6B0E001C01D9288
:10008000AC36B207E1F70E94B7010C9410050C944E
:1000900000008130D1F028F0823089F0833091F077
:1000A0000895EBE3F0E081E090E001C0880F6A95ED
:1000B000EAF79081413061F4892B80830895E5E36C
:1000C000F0E0F1CFE2E3F0E0EECFE8E3F0E0EBCFF9
:1000D00080958923F2CF0F931F93CF93DF938C01E9
:1000E000D0E0F801ED0FF11DC081C11105C0DF9115
:1000F000CF911F910F910895D99A8FE99FE00197B1
:10010000F1F700C00000DA9A8FE99FE00197F1F75C
:1001100000C00000C4FB442740F963E080E00E9477
:100120004900C5FB442740F964E080E00E94490093
:10013000C6FB442740F965E080E00E9449004C2F4F
:10014000441F4427441F66E080E00E9449008FE975
:100150009FE00197F1F700C00000DA988FE99FE077
:100160000197F1F700C00000DA9A8FE99FE001974C
:10017000F1F700C000004C2F417063E080E00E9466
:100180004900C1FB442740F964E080E00E94490037
:10019000C2FB442740F965E080E00E944900C3FBB0
:1001A000442740F966E080E00E9449008FE99FE023
:1001B0000197F1F700C00000DA988FE99FE00197FE
:1001C000F1F700C00000DF5F8CCFCF93C82FD99824
:1001D0008FE99FE00197F1F700C00000DA9A8FE9FC
:1001E0009FE00197F1F700C00000C4FB442740F9ED
:1001F00063E080E00E944900C5FB442740F964E0C9
:1002000080E00E944900C6FB442740F965E080E099
:100210000E9449004C2F441F4427441F66E080E0A1
:100220000E9449008FE99FE00197F1F700C00000AC
:10023000DA988FE99FE00197F1F700C00000DA9AA1
:100240008FE99FE00197F1F700C000004C2F41704B
:1002500063E080E00E944900C1FB442740F964E06C
:1002600080E00E944900C2FB442740F965E080E03D
:100270000E944900C3FB442740F966E080E00E94E9
:1002800049008FE99FE00197F1F700C00000DA987C
:100290008FE99FE00197F1F700C00000CF9108952A
:1002A0001F920F920FB60F9211240F931F932F934B
:1002B0003F934F935F936F937F938F939F93AF93EE
:1002C000BF93EF93FF93CF93DF93CDB7DEB726971E
:1002D000DEBFCDBF369A3699FECF84B195B19093EB
:1002E0006B0080936A0081E00E94E50080916A00C3
:1002F00090916B009F938F9387E690E09F938F93ED
:100300008E010F5F1F4F1F930F930E94380280E8EA
:100310000E94E500C8010E946B002FEF87EA91E67A
:10032000215080409040E1F700C000000F900F90F6
:100330000F900F900F900F9026960FB6F894DEBF97
:100340000FBECDBFDF91CF91FF91EF91BF91AF91E4
:100350009F918F917F916F915F914F913F912F91DD
:100360001F910F910F900FBE0F901F90189582B3A1
:10037000813009F46EC008F478C0823009F46FC08F
:10038000833009F46FC082B341E062E00E9449000B
:1003900085B7836085BF8BB780648BBF789486B147
:1003A000876886B93E9AD19AD29A2FEF89EF90E06A
:1003B000215080409040E1F700C00000D39AD49AC9
:1003C000D59AD69A2FEF89EF90E021508040904047
:1003D000E1F700C0000083E30E94E50082E30E9491
:1003E000E50088E20E94E5008CE00E94E50081E0E3
:1003F0000E94E500C0E08C2F80680E94E50080E646
:1004000090E00E946B002FEF83ED90E3215080403D
:100410009040E1F700C0000081E00E94E500CF5F5E
:10042000C53049F78C2F80680E94E50080E690E097
:100430000E946B002FEF83ED90E3215080409040AD
:10044000E1F700C0000081E00E94E500C15051F7D3
:10045000D1CFE7E3F0E080818B7F808394CFE4E32A
:10046000F0E0F9CFE1E3F0E0F6CFEAE3F0E0F3CF3C
:10047000AEE0B0E0EEE3F2E00C94E7040D891E89F3
:1004800086E08C831A8309838FEF9FE79E838D8399
:10049000AE01475E5F4F6F89788DCE0101960E9455
:1004A0005B022F813885020F131FF80110822E96F0
:1004B000E4E00C940305ABE0B0E0E1E6F2E00C947C
:1004C000D9047C013B018A01FC01178216828381D9
:1004D00081FFC8C1CE0101965C01F7019381F30150
:1004E00093FD859193FF81913F01882309F453C1C6
:1004F000853239F493FD859193FF81913F018532D7
:1005000029F4B70190E00E944B04E7CF912C212CF5
:10051000312CFFE1F31538F08B3211F190F4803279
:1005200009F1833229F137FC3CC020ED280F2A3035
:1005300050F536FE20C08AE0989E200D1124922EA0
:1005400006C08D3291F0803371F7689430F8F30172
:1005500093FD859193FF81913F018111DACF21C0F5
:10056000689431F8689432F8F2CF689433F8EFCF9A
:10057000689434F8ECCFEAE02E9E200D1124222E50
:10058000689435F8E4CF8E3229F436FC04C16894BF
:1005900036F8DDCF8C3619F4689437F8D8CF883622
:1005A000B1F2982F9F7D95549330E0F08336A1F1FE
:1005B0008337C1F1833509F063C02801F2E04F0EA3
:1005C000511CF801C080D180692D70E036FC02C05A
:1005D0006FEF7FEFC6010E9435044C01689437F835
:1005E00082010AC00C5F1F4FFFE3F98388248394C4
:1005F000912C6501E89437F833FE2DC0522C8114FC
:10060000910471F5552009F468CFB70180E290E0BC
:100610000E944B045A94F6CFF801808189830E5FC3
:100620001F4FE4CF2801F2E04F0E511CF801C080AB
:10063000D180692D70E036FC02C06FEF7FEFC601FC
:100640000E9440044C018201D5CFB70180E290E0C6
:100650000E944B042A942814190409F0B0F7CECF55
:10066000F60137FC859137FE81916F01B70190E06B
:100670000E944B0451105A94F1E08F1A9108BFCF99
:10068000843619F0893609F077C0F80137FE6BC05F
:1006900060817181828193810C5F1F4FF32DFF7602
:1006A0003F2E97FF09C090958095709561957F4F7B
:1006B0008F4F9F4F689437F82AE030E0A5010E94E1
:1006C0007B04C82ECA188C2C432C36FE0CC0E89430
:1006D00040F8C91440F434FE05C032FC03C0F32DC9
:1006E000FE7E4F2E892C44FE95C0FE01EC0DF11DBF
:1006F0008081803309F087C0242D297E422E842DED
:100700008870582E43FC95C040FE8FC09C2C8214EC
:1007100018F42C0C922C981844FE91C0B70180E379
:1007200090E00E944B0442FE09C088E790E041FE41
:1007300002C088E590E0B7010E944B04C91408F498
:100740008AC0CA94D12C9FEFC91AD90ACA0CDB1CE3
:10075000F60182916F01B70190E00E944B04AC1446
:10076000BD04B1F74FCF60817181072E000C880B5B
:10077000990B0E5F1F4F92CFD32CE894D4F82AE048
:1007800030E0853739F1232D297FD22E8F3601F1C4
:1007900048F48835A9F0F701868197812B96E2E12C
:1007A0000C94F504803749F08837A9F7D4FE02C0CD
:1007B0006894D2F820E130E00DC06894D4F8F6CF08
:1007C00034FE03C0822F8660D82E20E132E002C0C2
:1007D00028E030E0F801D7FE0FC06081718182818E
:1007E00093810C5F1F4FA5010E947B04C82ECA187D
:1007F0003D2CE89437F867CF6081718190E080E00C
:100800000E5F1F4FF0CF42FC02C0839478CF8394D9
:10081000839475CF842D867809F471CFF6CFB70114
:1008200080E290E00E944B0483948214C0F3512C28
:1008300073CF522C5818821408F46ECFF8CF842D41
:10084000867809F47BCF8BE241FE80E247FC8DE2A3
:10085000B70190E071CFB70180E390E00E944B04B4
:100860009A946CCF8FEF9FEF99CFFC010590615068
:1008700070400110D8F7809590958E0F9F1F0895B6
:10088000FC016150704001900110D8F7809590955F
:100890008E0F9F1F08950F931F93CF93DF93182FF1
:1008A000092FEB018B8181FD09C01FEF0FEF812F15
:1008B000902FDF91CF911F910F91089582FF14C067
:1008C0002E813F818C819D81281739073CF4E88176
:1008D000F981CF0101969983888310838E819F814E
:1008E00001969F838E83E3CFE885F985812F099553
:1008F000892BA1F3DACFFA01AA27283051F1203150
:1009000081F1E8946F936E7F6E5F7F4F8F4F9F4FA3
:10091000AF4FB1E03ED0B4E03CD0670F781F891FE5
:100920009A1FA11D680F791F8A1F911DA11D6A0FB3
:10093000711D811D911DA11D20D009F468943F9166
:100940002AE0269F11243019305D3193DEF6CF0165
:100950000895462F4770405D4193B3E00FD0C9F72B
:10096000F6CF462F4F70405D4A3318F0495D31FD98
:100970004052419302D0A9F7EACFB4E0A6959795EB
:10098000879577956795BA95C9F7009761057105C1
:1009900008959B01AC010A2E06945795479537950B
:1009A0002795BA95C9F7620F731F841F951FA01D65
:1009B00008952F923F924F925F926F927F928F9203
:1009C0009F92AF92BF92CF92DF92EF92FF920F93DE
:1009D0001F93CF93DF93CDB7DEB7CA1BDB0B0FB6E8
:1009E000F894DEBF0FBECDBF09942A8839884888A5
:1009F0005F846E847D848C849B84AA84B984C8843B
:100A0000DF80EE80FD800C811B81AA81B981CE0F31
:100A1000D11D0FB6F894DEBF0FBECDBFED01089516
:040A2000F894FFCF78
:0A0A240048656C6C6F210025750019
:00000001FF
